:020000040000FA
:100000000C945D000C947A000C947A000C947A00A5
:100010000C947A000C947A000C947A000C948C0264
:100020000C947A000C947A000C947A000C947A0068
:100030000C947A000C947A000C947A000C947A0058
:100040000C94E8020C947A000C947A000C947A00D8
:100050000C947A000C947A000C947A000C947A0038
:100060000C947A000C947A00000000080002010051
:100070000003040700000000000000000200000070
:1000800000250028002B0000000000240027002A83
:100090000004040404040404040202020202020331
:1000A000030303030301020408102040800102043B
:1000B0000810200102040810200011241FBECFEFF9
:1000C000D8E0DEBFCDBF11E0A0E0B1E0E6E2F8E0AD
:1000D00002C005900D92A230B107D9F721E0A2E04D
:1000E000B1E001C01D92AC31B207E1F70E943203CA
:1000F0000C9411040C940000EDEAF0E02491E9E97D
:10010000F0E08491882399F090E0880F991FFC011A
:10011000E957FF4FA591B491FC01E358FF4F85913A
:1001200094918FB7F894EC91E22BEC938FBF0895E4
:100130009091000189130DC0ECE7F0E0E4919FEF8E
:1001400090930001E13009F431C068F1E23009F424
:1001500033C090E0FC01E859FF4F2491FC01EB55BE
:10016000FF4F3491FC01EF56FF4FE491EE23D1F0A5
:10017000222351F0233009F43AC078F5213009F4F4
:100180003CC0223009F43DC0F0E0EE0FFF1FE35801
:10019000FF4FA591B4918FB7F894EC9130953E2321
:1001A0003C938FBF089510926E00D3CF90916F0053
:1001B0009D7F90936F00CDCF909170009D7F909325
:1001C000700091E09093B0009091B100987F94609E
:1001D0009093B1001092B300BCCF2730A9F0283023
:1001E000C9F0243089F6809180008F7D03C0809112
:1001F00080008F7780938000C7CF84B58F7784BDD0
:10020000C3CF84B58F7DFBCF8091B0008F77809373
:10021000B000BACF8091B0008F7DF9CF3FB7F8948E
:100220008091110190911201A0911301B0911401DC
:1002300026B5A89B05C02F3F19F00196A11DB11D41
:100240003FBFBA2FA92F982F8827BC01CD01620F7D
:10025000711D811D911D42E0660F771F881F991F38
:100260004A95D1F708958F929F92AF92BF92CF9205
:10027000DF92EF92FF926B017C010E940E014B0115
:100280005C01C114D104E104F104B9F00E940E0133
:10029000681979098A099B09683E734081059105AF
:1002A00080F321E0C21AD108E108F10888EE880E37
:1002B00083E0981EA11CB11CE4CFFF90EF90DF906B
:1002C000CF90BF90AF909F908F9008958F929F9204
:1002D000AF92BF92CF92DF92EF92FF920F931F9354
:1002E000CF93DF93EC016A017B018091000188309C
:1002F000A9F08F3F09F1C701B6010E94330188E0E0
:10030000DF91CF911F910F91FF90EF90DF90CF90F1
:10031000BF90AF909F908F900C949800ECE7F0E026
:100320000491102F07FDE7CF0E947C00002389F184
:10033000123009F072C0C3C088E080930001ECE77E
:10034000F0E014911F3FB9F2113009F447C040F0BA
:10035000123009F491C017FDCECF0E947C00E8CF87
:1003600014BC15BC84B5826084BD85B5816085BD33
:10037000E9E9F0E0E491F0E0EE0FFF1FE358FF4FF2
:1003800085919491EDEAF0E0E491E09303010E94FD
:100390007C009E0150E040E062E17AE780E090E07E
:1003A0000E94D003BA01A9014150510961097109A4
:1003B00085B5887F846085BD47BD8FEF9FEFDC01E9
:1003C0008093080190930901A0930A01B0930B0157
:1003D00080916E00826080936E008DCF10928000BD
:1003E00010928100809181008860809381008091CB
:1003F0008100816080938100E9E9F0E0E491F0E020
:10040000EE0FFF1FE358FF4F85919491EDEAF0E066
:10041000E491E09302010E947C009E0150E040E0E4
:1004200060E072E18AE790E00E94D00349015A013E
:1004300081E0881A9108A108B108A401113009F0DF
:1004400066C080918100887F816080938100909256
:100450008900809288008FEF9FEFDC018093040178
:1004600090930501A0930601B093070180916F005E
:10047000826080936F003FCF1092B0001092B10065
:100480008091B00082608093B0008091B100816063
:100490008093B100E9E9F0E0E491F0E0EE0FFF1F96
:1004A000E358FF4F85919491909316018093150125
:1004B000EDEAF0E0E491E09317010E947C009E01D8
:1004C00050E040E064E274EF80E090E00E94D003EE
:1004D000BA01A90141505109610971098091B10026
:1004E000887F85608093B1004093B3008FEF9FEFCA
:1004F000DC018093180190931901A0931A01B09325
:100500001B0180917000826080937000F4CE1230E5
:1005100059F31111F0CE50CF1F920F920FB60F92D8
:1005200011242F933F934F935F936F937F938F93F8
:100530009F93AF93BF93EF93FF9380911801909196
:100540001901A0911A01B0911B01892B8A2B8B2BC9
:10055000D1F190911701E0911501F0911601808180
:10056000892780838091180190911901A0911A0127
:10057000B0911B01181619061A061B069CF48091EF
:10058000180190911901A0911A01B0911B010197D6
:10059000A109B1098093180190931901A0931A0140
:1005A000B0931B01FF91EF91BF91AF919F918F91FC
:1005B0007F916F915F914F913F912F910F900FBE5F
:1005C0000F901F901895809100010E949800EACF2B
:1005D0001F920F920FB60F9211242F933F938F9378
:1005E0009F93AF93BF9380910D0190910E01A091C5
:1005F0000F01B091100130910C0123E0230F2D3732
:1006000058F50196A11DB11D20930C0180930D0199
:1006100090930E01A0930F01B093100180911101EE
:1006200090911201A0911301B09114010196A11DA6
:10063000B11D8093110190931201A0931301B09307
:100640001401BF91AF919F918F913F912F910F9086
:100650000FBE0F901F90189526E8230F0296A11D3C
:10066000B11DD2CF789484B5826084BD84B5816099
:1006700084BD85B5826085BD85B5816085BD80916D
:100680006E00816080936E001092810080918100E5
:1006900082608093810080918100816080938100DD
:1006A000809180008160809380008091B10084609F
:1006B0008093B1008091B00081608093B000809100
:1006C0007A00846080937A0080917A0082608093BF
:1006D0007A0080917A00816080937A0080917A001C
:1006E000806880937A001092C1000E947C0048E5E7
:1006F00052E060E070E088E891E00E9466014CE220
:1007000051E060E070E088EB91E00E94660148E50E
:1007100052E060E070E088E891E00E94660140EB02
:1007200054E060E070E08AE491E00E94660188E0B5
:100730000E94980064EF71E080E090E00E94330135
:1007400048E552E060E070E088E891E00E946601D0
:100750004CE251E060E070E088EB91E00E946601BD
:1007600048E552E060E070E088E891E00E946601B0
:1007700040EB54E060E070E08AE491E00E946601A2
:1007800088E00E94980064EF71E080E090E00E94B1
:100790003301C0E0D0E02097F1F30E940000FBCFCE
:1007A000052E97FB1EF400940E94E70357FD07D027
:1007B0000E94EF0307FC03D04EF40C94E70350951E
:1007C0004095309521953F4F4F4F5F4F089590953D
:1007D0008095709561957F4F8F4F9F4F0895A1E24F
:1007E0001A2EAA1BBB1BFD010DC0AA1FBB1FEE1FAB
:1007F000FF1FA217B307E407F50720F0A21BB30BF6
:10080000E40BF50B661F771F881F991F1A9469F771
:1008100060957095809590959B01AC01BD01CF01CD
:080820000895F894FFCFFF00DA
:107E0000112484B714BE81FFF0D085E080938100F7
:107E100082E08093C00088E18093C10086E0809377
:107E2000C20080E18093C4008EE0C9D0259A86E02C
:107E300020E33CEF91E0309385002093840096BBD3
:107E4000B09BFECF1D9AA8958150A9F7CC24DD24C4
:107E500088248394B5E0AB2EA1E19A2EF3E0BF2EE7
:107E6000A2D0813461F49FD0082FAFD0023811F036
:107E7000013811F484E001C083E08DD089C08234E0
:107E800011F484E103C0853419F485E0A6D080C0E4
:107E9000853579F488D0E82EFF2485D0082F10E0AE
:107EA000102F00270E291F29000F111F8ED06801E7
:107EB0006FC0863521F484E090D080E0DECF843638
:107EC00009F040C070D06FD0082F6DD080E0C81688
:107ED00080E7D80618F4F601B7BEE895C0E0D1E017
:107EE00062D089930C17E1F7F0E0CF16F0E7DF06D8
:107EF00018F0F601B7BEE89568D007B600FCFDCFD4
:107F0000A601A0E0B1E02C9130E011968C91119780
:107F100090E0982F8827822B932B1296FA010C0160
:107F200087BEE89511244E5F5F4FF1E0A038BF0790
:107F300051F7F601A7BEE89507B600FCFDCF97BE46
:107F4000E89526C08437B1F42ED02DD0F82E2BD052
:107F50003CD0F601EF2C8F010F5F1F4F84911BD097
:107F6000EA94F801C1F70894C11CD11CFA94CF0C13
:107F7000D11C0EC0853739F428D08EE10CD085E9AC
:107F80000AD08FE07ACF813511F488E018D01DD067
:107F900080E101D065CF982F8091C00085FFFCCF94
:107FA0009093C60008958091C00087FFFCCF809118
:107FB000C00084FD01C0A8958091C6000895E0E648
:107FC000F0E098E1908380830895EDDF803219F02E
:107FD00088E0F5DFFFCF84E1DECF1F93182FE3DFCA
:107FE0001150E9F7F2DF1F91089580E0E8DFEE27F6
:047FF000FF270994CA
:027FFE00040479
:00000001FF
